:020000022000DC
:1070000000000420B5720200DD72020095B9020092
:10701000E1720200E3720200E5720200000000006B
:10702000000000000000000000000000E772020005
:10703000E972020000000000EB720200ED72020033
:1070400011DA0200EF720200FDDA0200EF720200B4
:10705000EF720200EF720200B1D60200EF7202007E
:10706000EF720200EF720200EF720200EF72020094
:10707000EF720200EF720200EF720200EF72020084
:10708000EF72020081B90200EF720200EF7202009B
:10709000EF720200EF72020029370300EF72020064
:1070A000EF720200EF720200EF720200EF72020054
:1070B000EF720200EF72020000000000000000000A
:1070C000EF720200EF720200EF720200EF72020034
:1070D000EF720200EF720200EF72020081F702000D
:1070E000EF720200EF720200EF7202000000000077
:1070F00000000000EF72020000000000EF720200CA
:10710000000000000000000000000000000000007F
:10711000000000000000000000000000000000006F
:10712000000000000000000000000000000000005F
:10713000000000000000000000000000000000004F
:10714000000000000000000000000000000000003F
:10715000000000000000000000000000000000002F
:10716000000000000000000000000000000000001F
:10717000000000000000000000000000000000000F
:1071800000000000000000000000000000000000FF
:1071900000000000000000000000000000000000EF
:1071A00000000000000000000000000000000000DF
:1071B00000000000000000000000000000000000CF
:1071C00000000000000000000000000000000000BF
:1071D00000000000000000000000000000000000AF
:1071E000000000000000000000000000000000009F
:1071F000000000000000000000000000000000008F
:1072000010B5054C237833B9044B13B10448AFF3E0
:1072100000800123237010BD202D002000000000FD
:10722000885E030008B5034B1BB103490348AFF365
:10723000008008BD00000000242D0020885E0300AF
:10724000154B002B08BF134B9D46A3F5803A002138
:107250008B460F461348144A121A0CF06AFC0F4B67
:10726000002B00D098470E4B002B00D098470020F1
:10727000002104000D000D48002802D00C48AFF397
:1072800000800CF007FC200029000AF0B3FB0CF092
:10729000EDFB00BF0000080000000420000000001B
:1072A00000000000202D00202842002000000000E7
:1072B000000000000649074A074B9B1A03DD043B08
:1072C000C858D050FBDC05F013FBFFF7B9FF0000F6
:1072D000C85F0300E82A0020202D0020FEE7FEE71B
:1072E000FEE7FEE7FEE7FEE7FEE7FEE7FEE7FEE776
:1072F000F0B595B0002415460F4608461E4605F029
:10730000DDF9384623460895082205A91A9D0996F5
:107310000D950A948DF82C400C9405F029FA9DF8EF
:1073200014308DF81140DDE9061003F00302012A44
:10733000CDE9020127D0022A04D0384605F0C2F96F
:1073400015B0F0BDBDF81650C3F3C2038DF8103070
:10735000AD090826082D2C4628BF082433462246AE
:107360000EA9384605F004FA2D1B214608AB02AAE7
:107370000EA8264400F01CFE002DEBD1384605F087
:10738000A1F915B0F0BDBDF81460059DC6F38316D4
:10739000C3F3C204B2000EA9384608238DF810408A
:1073A000C5F3952505F0E4F908AB324628460EA949
:1073B000009302AB00F056FD384605F083F915B096
:1073C000F0BD00BF014B01221A707047802D0020D4
:1073D000704700BF00B583B0044B0093044A4023BC
:1073E000FFF786FF03B05DF804FB00BFF5730200F2
:1073F000402D002038B50E480E4D03780E4CEB5C46
:107400000025D2B2257053B90C3006F007FE58B9EA
:107410000A4B1B7813B12378002BFCD038BD043005
:1074200007F0DAF80028F3D001F06EF8F0E700BFBB
:10743000E82A002040410020802D00203C2D002023
:1074400070B51348134A0378D35C88B0DBB90C30AD
:1074500006F060FD104D0FCD6C460FC495E80F008F
:1074600008AD062645F8206D84E80F002946002265
:10747000074805F049FE08B101F046F8074B002225
:107480001A7008B070BD043006F0F2FFE2E700BFEA
:10749000E82A0020404100206C4703003C2D0020DA
:1074A00070B50D4D0FCD88B06C460FC495E80F0038
:1074B00008AD062645F8206D84E80F002946074AE6
:1074C000074805F021FE08B101F01EF8054B012226
:1074D0001A7008B070BD00BF6C470300C57302008E
:1074E000E82A00203C2D002008B5FFF7D9FF042131
:1074F000034800F06FFC034B01225A7108BD00BF26
:10750000B05F0300FC2A0020F0B52F4C85B004F5D5
:10751000836004F0E5FB04F2144004F0E1FBA3688F
:10752000DAB2D01C04EB800114F8200010F0040043
:1075300041D09F1C0E7806F00306012E3D4633D045
:10754000022E02F1030621D004EB86010028F1D1BE
:1075500004EB82020133D2680192DBB204EB8303B5
:1075600002F00302012ADE6827D0022A21D1BDF8E9
:1075700006309B090333360C05EB9305134804F0E2
:10758000BBFB00B1A560304605B0F0BD4B8807EBF2
:107590009313DAB2D11C9F1C14F821003D4604EB72
:1075A000810100F00400D1E70B88C3F383133B444F
:1075B000EFE70026E2E79D1CCAE7BDF80430C3F3FD
:1075C0008313360C1D44D9E7542E00206832002066
:1075D000064B074810B500221A7005F02BF8044638
:1075E00010B9044805F0F8F8204610BD542E0020CC
:1075F000F45E0300AC47030021B9124B03EBC0005B
:1076000000687047104A0F49521AD20815D030B49A
:107610000E4D2B88834212D0002303E035F823401F
:10762000844205D001339A42F8D1002030BC704723
:1076300001EBC300006830BC704710467047084635
:10764000F8E700BF085F0300B05F0300202D0020B3
:10765000094B013903EBC00003290BD8DFE801F027
:10766000020806040220704740797047007970478D
:107670000420704700207047085F03002DE9F041A7
:1076800082B002AB002203F8012D324C07461846A7
:10769000884603F0E5FFD4E9015303F580735B1BD3
:1076A000012B54D804F21C460121304604F0F2FAB2
:1076B000FFF72AFF0146304604F0ECFAD4E9012333
:1076C00003F580739B1A012BEED9D3B20333023238
:1076D00005219DF8070044F82310626003F0E6FFDF
:1076E00000211D4804F0B4FA80F310006B1CDBB2DB
:1076F00004EB83030004EDB2033540EA1740D86081
:1077000014F8253067F3C50304F8253034F8253024
:107710006FF3891324F8253054F8252068F39F224D
:107720001346012161F301036FF3820344F825201E
:1077300004F8253023781BB906E000F00FF818B1E3
:10774000D4E901329A42F8D102B0BDE8F0812A466C
:10775000BBE700BF542E0020703200202DE9F0431B
:107760008A4C002385B0C4F81834BFF34F8FA56846
:10777000EAB2D31C04EB830114F82330580718D560
:1077800066680B7803F00303012B42D0022B03D170
:107790004B88023505EB9315EAB2D4F81804D31CD4
:1077A00004EB830128B9AE4239D914F823305B07C2
:1077B000E7D404EB82026B1CD2680192DBB204EBCB
:1077C000830302F00302DB680293022A05F102063A
:1077D00000F08C80012A26D0D4F810543DB12B68DB
:1077E00028469B689847EB681D68002DF7D16848CC
:1077F000684B6949C01AC008000440F00200FFF756
:107800003DFFD4E90130C01A18BF012005B0BDE822
:10781000F0830B880235C3F383131D44BCE7A660D5
:1078200005B0BDE8F083BDF804205C48C2F38313C3
:10783000062B28BF062363F3891202339900ADF8A3
:10784000042004F0F9FE07460028C5D004F036FFF6
:107850000023082201A9384604F056FFBDF8043081
:1078600013F4707F00F08F806FF00109A9EB050918
:107870000825F1B203312B46042204EB810138467E
:1078800004F042FFBDF8043006F1010809EB0802DC
:10789000C3F383139342464605F10405E9D8D4F8AF
:1078A0001834002B65D1D4F8105465B1EB685A79BF
:1078B00028463946002A58D02B681B689847EB6841
:1078C0001D68002DF2D1384604F0FCFE04A8002308
:1078D00000F80D3D03F0C4FED4F818340BB9C4F819
:1078E00008809DF8030003F0E1FE8AE7BDF806304A
:1078F0002A484FEA93194D46502D28BF502565F36D
:107900008F1305F10801ADF8063004F095FE074627
:1079100000283FF461AF6FEA06085FFA88F804F0C8
:10792000CDFE08F1010801A900230822384604F021
:10793000EBFE4FEA8808F1B20331454504EB8101C3
:107940001BD9A5EB0805082342463846EDB204F0E2
:10795000DBFE2A4608F108031149384604F0D4FE3C
:1079600009F1030806EB980899E71D68002D9DD1E1
:10797000A9E7384604F0A6FE43E72A46082338461E
:1079800004F0C2FEECE7B04689E700BF542E0020A9
:10799000385F0300085F0300B8470300F45E03008C
:1079A000602E00202DE9F04383B002AB002403F8E1
:1079B000014D354C074618468846914603F050FE67
:1079C000D4E9015303F580735B1B022B5AD804F2F0
:1079D0001C460121304604F05DF9FFF795FD014694
:1079E000304604F057F9D4E9012303F580739B1A5C
:1079F000022BEED9D3B203334521033244F82310CE
:107A00009DF80700626003F051FEAB1CDBB204EB93
:107A1000830300211D48C3F80C9004F019F980F38A
:107A200010006B1CDBB204EB83030004EDB20335E2
:107A300040EA1740D86014F8253067F3C50304F80E
:107A4000253034F82530012161F3891324F82530DD
:107A500054F8252068F39F22134661F301036FF366
:107A6000820344F8252004F8253023781BB906E06A
:107A7000FFF774FE18B1D4E901329A42F8D103B08D
:107A8000BDE8F0832A46B5E7542E0020703200206E
:107A90002DE9F04782B002AD002405F8014D394CC4
:107AA0000746284699468846924603F0D9FDD4E910
:107AB000015303F580735B1B032B61D804F21C4652
:107AC0000121304604F0E6F8FFF71EFD014630467E
:107AD00004F0E0F8D4E9012303F580739B1A032B2B
:107AE000EED9D3B20333852144F8231004329DF834
:107AF0000700626003F0DAFDAA1CEB1CD2B2DBB215
:107B000004EB820204EB830300211F48C2F80CA09F
:107B1000C3F80C9004F09CF880F310006B1CDBB2EF
:107B200004EB83030004EDB2033540EA1740D8604C
:107B300014F8253067F3C50304F8253034F82530F0
:107B4000022262F3891324F8253054F8252068F3C3
:107B50009F221346012161F301036FF3820344F86E
:107B6000252004F8253023781BB906E0FFF7F6FD41
:107B700018B1D4E901329A42F8D102B0BDE8F087D9
:107B80002A46AEE7542E0020703200202DE9F04B3B
:107B900082B002AD002405F8014D3C4C80462846D9
:107BA0001F468946934603F05BFDD4E9015303F574
:107BB00080735B1B042B66D804F21C4601213046FF
:107BC00004F068F8FFF7A0FC0146304604F062F8C4
:107BD000D4E9012303F580739B1A042BEED9D3B2A9
:107BE0000333C52144F8231005329DF80700626075
:107BF00003F05CFDA81CEA1C2B1DC0B2D2B204EB42
:107C0000800004EB8202DBB204EB8303C0F80CB00B
:107C10000021D7601E480A9ADA6004F019F880F350
:107C200010006B1CDBB204EB83030004EDB20335E0
:107C300040EA1840D86014F8253068F3C50304F80A
:107C4000253034F82530032262F3891324F82530D7
:107C500054F8252069F39F221346012161F30103A3
:107C60006FF3820344F8252004F8253023781BB9EC
:107C700006E0FFF773FD18B1D4E901329A42F8D15A
:107C800002B0BDE8F08B2A46A9E700BF542E0020C1
:107C9000703200202DE9F04F87B006AD002405F8C2
:107CA000114D444CDDF84080CDF81080CDE9022321
:107CB000074699462846119B059392468B4603F04A
:107CC000CFFCD4E9015303F580735B1B052B6ED801
:107CD00004F21C460121304603F0DCFFFFF714FCE0
:107CE0000146304603F0D6FFD4E9012303F5807343
:107CF0009B1A052BEED9D3B2033340F2051144F899
:107D0000231006329DF807006260EE1C03F0CEFCE3
:107D1000A91C2A1D6B1DC9B2F6B2D2B204EB8101B7
:107D200004EB8202DBB204EB860604EB8303C1F8AA
:107D30000CA02148C6F80C900021C2F80C80119AC2
:107D4000DA6003F085FF80F310006B1CDBB204EBFC
:107D500083030004EDB2033540EA1740D86014F8FD
:107D6000253067F3C50304F8253034F825300422A4
:107D700062F3891324F8253054F825206BF39F22F1
:107D80001346012161F301036FF3820344F82520B8
:107D900004F8253023781BB906E0FFF7DFFC18B1A3
:107DA000D4E901329A42F8D107B0BDE8F08F2A46F3
:107DB000A1E700BF542E002070320020044BD3E90D
:107DC00001239A4201D0FFF7C9BC0020704700BFD1
:107DD000542E002030B4184DD5F8104400215CB169
:107DE000E3681A798A4204D116E0DB681A798A427C
:107DF00012D01B68002BF8D1C3681971D5F8103464
:107E000093B1DA68C36812681A60D5F81034DB6879
:107E1000186030BC0846704701310A29DFD14FF0A5
:107E2000FF31084630BC7047C5F81004C2681360C3
:107E3000084630BC704700BF542E002038B5084BB0
:107E4000D3F8104401251D704CB1E3685D712368BF
:107E500020465B689847E3681C68002CF5D138BD64
:107E6000542E00202DE9F04784B01D460C9C0023C1
:107E700094F80C802373EB8881460E461746002B3E
:107E800040D1297A05290ED06B7AA88873BB404B64
:107E900053F821A00021FFF7AFFB524603463D49AE
:107EA000204603F0A1FF062F09D8DFE807F0046A97
:107EB0004249525D33004946204603F095FF2B7A34
:107EC000052B05D06B7A5BB93349204603F08CFF54
:107ED000204603F07DFF84F80C8004B0BDE8F087F5
:107EE0002E4A2F49204603F07FFFEDE7FFF7B0FB56
:107EF0002C4B2B4953F82020204603F075FF297A9C
:107F0000A888C4E7254A00922749284A204603F05A
:107F10006BFFB6E7D6E90410D6E900230390D6E953
:107F200002070291CDE900074946204603F05CFFB5
:107F3000C5E74946D6E90023204603F055FFBEE7D2
:107F4000B168D6E9002320460091494603F04CFF72
:107F5000B5E7D6E90201D6E9002301910090494630
:107F6000204603F041FFAAE7D6E90371B068D6E9DD
:107F700000230291CDE900074946204603F034FF73
:107F80009DE732684946204603F02EFF97E700BF81
:107F900040480300304803003C48030028480300E1
:107FA0008C580300D0470300104803000848030022
:107FB000082900D970472DE9F04F1D46904600234F
:107FC0002A7B2B7385B0B8F80630039207460E461D
:107FD000002B7BD198F80810052911D098F80930AA
:107FE000B8F80400002B63D13C4B53F8214000212A
:107FF000FFF702FB224603463949284603F0F4FE08
:10800000DFF8FCB0DFF8FC90002405E03A5D0134B5
:1080100003F0EAFE082C09D0A64249462846F5D8C6
:108020005946013403F0E0FE082CF5D12D49DFF864
:10803000D8B0DFF8D890284603F0D6FE00240CE034
:1080400017F804A0BAF17E0F23D92E2249462846FC
:10805000013403F0C9FE082C08D0A642F0D85946D6
:108060002846013403F0C0FE082CF6D198F80830F9
:10807000052B02D098F80930A3B91B49284603F014
:10808000B3FE284603F0A4FE039B2B7305B0BDE8A6
:10809000F08F0BF023FD50445246437813F0970FB6
:1080A000D3D0D3E7114A1249284603F09DFEE4E7F6
:1080B000FFF7CEFA0F4B0E4953F82020284603F065
:1080C00093FE98F80810B8F804008DE7074A00926C
:1080D00009490A4A284603F087FE7BE74048030027
:1080E00030480300004803003C48030028480300D0
:1080F0008C580300D04703001048030008480300D1
:10810000FC470300F4470300384803000448030019
:1081100070B51A4B1D789DB1194B1C682378C0B2FD
:10812000984210D004F10802002306E014F833103E
:108130008142164602F1080206D001339D42F5D174
:1081400000231B78FFDE264605F0A2FA7378A3F120
:108150000103B3FA83F35B09834200D070BD094B7E
:10816000D3E900231343F9D1074B084819680022CB
:108170004908BDE8704000F0F1BB00BF0C3300209F
:1081800060330020383300201033002018330020E3
:108190002DE9F04F9D4E337887B0002B00F03081F1
:1081A0009B4F9C4DDFF8788200244FF00109D7F8EF
:1081B00000B01BF8340005F06BFA0BEBC4031BF89E
:1081C00034B05B784FEA5B0C1BF0010E15F80C1015
:1081D000A3F10103B3FA83F314BF0A0901F00F02FC
:1081E0005B09042A00F2D080DFE812F09800D0008A
:1081F000690048000500834200F0E980BEF1000FED
:108200000CBFF0230F233078194005F80C10A8B1EB
:10821000D7F800C09CF800305B4500F0E7800CF117
:108220000802002304E01CF83310594500F0DF80F9
:1082300001338342964602F10802F4D14FF0000365
:108240000DF117008DF817300023039303F008FA9F
:10825000ABF12002CBF1200329FA03F309FA02F271
:108260001A4309FA0BF103920291D8E90023DDE9E0
:10827000020122EA000023EA01017DE08342327814
:108280000CD0BEF1000F0CBFF0230F2303EA010353
:108290000CBF04214021194305F80C10013494420D
:1082A00085DBD8E90023134306D05B4B5B48196894
:1082B0000022490800F052FB07B0BDE8F08F83426E
:1082C00076D1BEF1000F14BF0F23F02303EA0103A0
:1082D000327814BF30210321194305F80C10002A0D
:1082E000DFD0D7F800C09CF800305B4500F08B80F1
:1082F0000CF108010023013393428E4601F108017D
:10830000CCD01CF833005845F5D1DEF80430002BF2
:10831000C4D05846012198473278BFE7834233D111
:10832000BEF1000F0CBFF0230F2303EA01030CBFC3
:108330000121102119434FF000030DF117008DF8B2
:1083400017300023019305F80C1003F089F9ABF105
:10835000200309FA03F301930198CBF1200129FAD4
:1083600001F1084309FA0BF101900091D8E90023CB
:10837000DDE900011043194302460B469DF8170042
:10838000C8E9002303F092F9327887E7834213BFEC
:108390000023202302221A46BEF1000F12BF0F2035
:1083A000F020134601400B4305F80C30327875E796
:1083B000BEF1000F0CBFF0230F2303EA01030CBF33
:1083C00001211021194305F80C10327866E7BEF13F
:1083D000000F14BF0F23F02303EA010314BF302161
:1083E0000321194305F80C10327857E7E646DEF80A
:1083F0000430002B3FF422AF0021584698471DE778
:10840000DFF81C804DE7E6467FE700BF0C33002015
:108410006033002040330020103300201833002048
:1084200038330020092A40D9F0B583B00E460546FE
:10843000144604F0B7FF002831D0204A2049214BD0
:1084400015600E70202200211F481C600BF071FB8C
:108450001E4B00200021741EC3E90001E4B236B3B4
:1084600005EBC4041A4E083D032701E0A5421ED0C7
:108470009DF8063020788DF8047003F0FC036FF34C
:1084800082038DF80630A3788DF80530324601A9B5
:1084900004F092FF083C0028E8D003B0F0BD04F0DF
:1084A0002BFF0028C9D003B0F0BD07207047094A50
:1084B0000948002100F044FA03B0F0BD6033002009
:1084C0000C330020103300204033002038330020CC
:1084D0001181020091810200A448030070B5084D8B
:1084E0002B785BB1074E00243368012113F8340068
:1084F00005F052F82B780134A342F5D8002070BD66
:108500000C3300206033002000B585B000230390B9
:10851000194601AA44F20100CDE9013300F004F844
:1085200005B05DF804FB00BF10B572B6FFF786FC1E
:10853000FFF744FC0028FBD1104B114C1149E41A01
:10854000E408240444F00100FFF798F80E4B1B6880
:10855000DB0700D500BE44F002000C49FFF78EF89F
:10856000BFF34F8F0A490B4BCA6802F4E062134312
:10857000CB60BFF34F8F00BFFDE700BF085F030074
:10858000385F0300B4480300F0ED00E0C04803008A
:1085900000ED00E00400FA05D0E90223D1E9020170
:1085A000994208BF90422CBF01200020704700BFB5
:1085B0002DE9F04F87B0039003F09EF940B19B493D
:1085C000D1E9002312F1807443F10005C1E90045AF
:1085D00000210398964C03F0ABF960B1236853B1C6
:1085E000944B25681B7823B11DB12B7F002B40F0E5
:1085F0002D81002323600121039803F099F90028BD
:1086000040F0F38005A98C4803F0C6FA18B38B4EEE
:10861000884F894D0378012B00F0C680C0F0CC80D4
:10862000022B0ED130464FF0000804F00DF930B1A6
:1086300080F81C80304604F007F90028F8D10123A7
:108640003B7005A9284603F0D5FA05A9284603F092
:10865000A3FA0028DED1794E794FDFF8D09103E0FC
:108660000D2855D000232360304604F0F3F823682A
:10867000002800F0B48063B12368D0E90201D3E997
:108680000223994208BF90423BD223681B7F002BF4
:108690007FD1304604F0D8F80546D5E902233846A4
:1086A000CDE9002303F056F9D9E90023DFF89481DE
:1086B00012EB000A43F1000BD8E900239B4508BFE9
:1086C000924503D21AF1807A4BF1000BDDE90001EB
:1086D000B0EB0A0061EB0B01012871F1000313DB21
:1086E000DFF864A1504559D8AA684FF496030021D9
:1086F000384603F07BF80028B2D12368002B67D0FE
:10870000256007B0BDE8F08F0021384603F004F97A
:10871000484B1B78002BA5D02B7F002BA2D03846CE
:1087200003F018F9D8E90023D9E900ABCDE900231B
:108730001AEB00024BF1000310461946DDE9002355
:10874000994208BF904203D210F1807041F10001BC
:10875000D5E90223994208BF904261D32B6903B93E
:108760002B77D5E905309847296900293FF47AAF7E
:108770002B7F002B3FF476AFD5E9022312EB010AE1
:1087800043F1000BC5E902AB2946304604F048F836
:1087900068E72168304604F043F87AE7384603F08A
:1087A000D9F800EB0A02A0E741682368994213D088
:1087B000304604F053F844E743681A7F002A7FF4F8
:1087C00040AF01221A774168304604F029F838E7B3
:1087D000039802F0DDFF93E70023236031E7002BCD
:1087E0008FD1039802F0D8FF8BE71548DFF854804B
:1087F00003F0B0F80D4BD3E90067D8E9002316EB7E
:10880000000947F1000A9A4508BF9145484651467C
:1088100003D219F180704AF10001C8E90001F1E6C4
:108820002946304603F0FCFF1CE700BF68330020F8
:10883000E833002070330020CC330020D4480300FC
:10884000042B0020E0330020FFFFB4001D4803F09C
:1088500081F81D4A1D4BD2E90067D3E9002316EBCE
:10886000000847F10009994508BF90454046494630
:1088700003D218F1807049F10001D5E90223994231
:1088800008BF904219D32B6903B92B77D5E905307E
:108890009847296900293FF4ACAE2B7F002B3FF4A9
:1088A000A8AED5E90223561843F10007C5E90267CF
:1088B0002946074803F0B4FF9BE62946044803F025
:1088C000AFFF96E6042B002068330020E033002041
:1088D000D448030010B5134B13491B68134882B0EA
:1088E00058220193082303F003F9044610B12046EF
:1088F00002B010BD0E4A0F4801A902F0EFFE044677
:108900000028F4D101210B4802F0ECFF01231946A5
:10891000094A084802F044FF084B012220461A7019
:1089200002B010BDD048030074330020CC330020C7
:10893000B1850200042B0020FFFF7F007033002070
:108940004AB1A1F101010368B1FA81F14909C3E912
:108950000412002070470720704700BF037F0BB14F
:10896000002070472DE9F048826182B004461F481C
:108970000D4602F0EFFF1E4B1E49D3E90023D1E95B
:10898000006712EB000B43F1000CBC4508BFB34578
:1089900003D21BF1807B4CF1000C1BEB050221691B
:1089A0004CF10003C4E9022379B901A9124803F08C
:1089B000B7F888B100254460057001A90E4803F09E
:1089C000DBF868B902B0BDE8F088256101A90A4862
:1089D00003F0A6F80028EDD1042002B0BDE8F0882D
:1089E000024802F0BBFF2846ECE700BF042B002042
:1089F00068330020E0330020CC33002030B5002560
:108A000083B00446057701A90B4803F089F878B1D3
:108A100001234460037001A9074803F0ADF808B9C9
:108A200003B030BD054802F099FF284603B030BDC1
:108A3000042003B030BD00BFCC330020042B002045
:108A400070B582B001A9154803F06AF818B3144E46
:108A5000044602AB30682060002503F8055D184627
:108A600002F0FEFD0F4B10481B88026801339B1A71
:108A7000E380294603F0ECF8A0809DF8030002F0A3
:108A800015FE01A9054803F077F8084B1B6813B1E0
:108A900001463046984702B070BD00BF98350020AF
:108AA000084903008C340020B8350020F033002042
:108AB00070B50378052B82B005462AD0002B35D13E
:108AC000304B1C683CB1236868889B6898472368D2
:108AD0005C68002CF7D102A800232B4C00F8043D61
:108AE00002F0BEFD236883B10121274803F0D2F8CC
:108AF0009DF8040002F0DAFD244B1B6813B12846F0
:108B000001219847236802B070BD214B6A881A8002
:108B1000EAE7204BD3F88424D3F8803413F0FF0F16
:108B200004D11D4BD2B2052A08BF1D4601A91B481E
:108B300002F0F6FF04460028E5D002A82B68236067
:108B4000002600F8056D02F08BFD114B0E481B88C6
:108B5000026801339B1AE380314603F079F8A08064
:108B60009DF8030002F0A2FD01A90C4803F004F8EF
:108B7000064B1B68002BC6D001462846984702B01A
:108B800070BD00BFB0350020B8350020F0330020A4
:108B90008C34002000700240044903009835002006
:108BA00070B5012882B035D009D3022830D101A98F
:108BB0001D4802F0B5FF044650B31C4E06E001A963
:108BC000194802F0ADFF044610B3194E306820601A
:108BD00002AB002503F8055D184602F041FD154B78
:108BE00015481B88026801339B1AE380294603F06D
:108BF0002FF8A0809DF8030002F058FD01A90A4853
:108C000002F0BAFF0D4B1B6813B10146304698477E
:108C100002B070BD01A9044802F082FF044600289A
:108C2000F6D0074ED2E700BF983500200049030078
:108C3000F84803008C340020B8350020F0330020C1
:108C4000FC4803002DE9F04F87B006AF002604462C
:108C5000894692469B4647F8106D00E001366268EF
:108C600001235568214600223846A8470028F5D13F
:108C70008DF80600049066B3804605460AE09DF82C
:108C800006306768023B7F68B8479DF806301D4490
:108C9000AE421ED962680123576821460DF10602D3
:108CA00004A8B84762680123576821460DF10702FE
:108CB00004A8B8479DF807304B454FF00002214605
:108CC00004A8DCD1C24508D008F101085FFA88F891
:108CD000D5E7052007B0BDE8F08F109A9DF8063063
:108CE00013608BF800308BF801906168023B4D688F
:108CF0000BF102022146A8470020EBE72DE9F041E5
:108D0000082382B005464FF484723949394802F08D
:108D1000EFFE40B9384806F085FE044640B12046D3
:108D200002B0BDE8F0810324204602B0BDE8F08126
:108D3000324A3349334B14700C6048222146324882
:108D40001C600AF0F6FE2146482230480AF0F1FE87
:108D5000002D45D095E807002D4B83E80700002043
:108D600004F034F908B185283FD12A4D274F2B7ADA
:108D70006E68DFF894C005F109044FF0030E1EFB86
:108D8000034E74451FD0F4B16378CBB1A278A2181A
:108D900016D003F1FF38114652FA88F8013A01E083
:108DA00001310DD012F8010F00F00F03DB000006B7
:108DB0004CBF6344DB1990451D6030685860EFD1AB
:108DC00003347445DFD102A90B2301F8043D114897
:108DD0003368984704460028A1D006F0B7FE9EE706
:108DE0000B4BC3E900551D72B9E7FFF78DFBBCE7DC
:108DF0009034002098350020B18A0200BC35002054
:108E0000A8350020AC350020FC330020443400207D
:108E1000F03300204849030010B507F019FA40B1BB
:108E200007F01EFA044620B9054804F0E9F810B925
:108E300010BD082010BDFFF767FB204610BD00BF26
:108E4000F448030006F08CBE06F0CCBF4FF0804320
:108E500003E0D3F83824D10730D5D3F8382492076B
:108E6000F7D570B582B001A9154802F059FE044645
:108E700010B3144E02AB30682060002503F8055D86
:108E8000184602F0EDFB104B10481B8802680133B6
:108E90009B1AE380294602F0DBFEA0809DF80300C8
:108EA00002F004FC01A9064802F066FE084B1B68AC
:108EB00013B101463046984702B070BD704700BFFD
:108EC000983500200C4903008C340020B835002070
:108ED000F033002030B583B0822301A915488DF806
:108EE000003002F01DFE10B3044602AB0098206073
:108EF000002503F8055D184602F0B2FB0E4B0F4843
:108F00001B88026801339B1AE380294602F0A0FE09
:108F1000A0809DF8030002F0C9FB01A9054802F0FA
:108F20002BFE074B1B6813B101466846984703B0F8
:108F300030BD00BF983500208C340020B8350020AB
:108F4000F03300202DE9F04F037881B08246852B65
:108F500000F2B980DFE813F03A028B01BA00ED01AC
:108F60005602D800E000B700FB000E012101B70057
:108F7000B700B700B7003401B700B700B700B700BB
:108F8000B700B700B700B700B700B700B700B70029
:108F9000B700B700B700B700B700B700B700B70019
:108FA000B700B700B700B700B700B700B700B70009
:108FB000B700B700B700B700B700B700B700B700F9
:108FC000B700B700B700B700B700B700B700B700E9
:108FD000B700B700B700B700B700B700B700B700D9
:108FE000B700B700B700B700B700B700B700B700C9
:108FF000B700B700B700B700B700B700B700B700B9
:10900000B700B700B700B700B700B700B700B700A8
:10901000B700B700B700B700B700B700B700B70098
:10902000B700B700B700B700B700B700B700B70088
:10903000B700B700B700B700B700B700B700B70078
:10904000B700B700B700B700B700B700B700B70068
:10905000B700B700B700B7004801860057011C02EF
:10906000D001D8009C4BDFF888929C49D3E90002DC
:109070009047D9F80040002C40F09A82DFF86CA2AB
:10908000DAF80430002B40F0A28201F04FFF944B3D
:109090001B68002B00F00B830120924D06F0BAFFF5
:1090A0002A78931EDBB2062B0BD88F49CB5C13B109
:1090B00003F0F0FE2A78022A00F0F382082A00F07A
:1090C000F08201232B7001B0BDE8F08F854D2A7826
:1090D000931EDBB2062B0BD88349CB5C13B103F094
:1090E000D9FE2A78022A01D0082A01D107F0FEF918
:1090F0007E4B5B6803222A700BB1022098477C4BA1
:109100001C68002C40F0AE81734BD3E9000251463D
:1091100001B0BDE8F04F1047827802F00F0312064D
:109120004CBF744A6C4ADB001344D3E90002514639
:1091300090470028C7D09AF8020000F00F03013BC7
:10914000062BC0D801B0BDE8F04F07F029BC674B33
:109150005B680BB108209847654B1C68002CB2D0A7
:10916000636820461B685146984723681C68002C9A
:10917000F6D1A8E75D4B5B680BB1092098475C4BC3
:109180001C68002C9FD0636820461B685146984796
:1091900023681C68002CF6D195E7544B5B680BB133
:1091A0000A209847524B1C68002C8CD063682046DC
:1091B0001B685146984723681C68002CF6D182E74B
:1091C0004A4B5B680BB10F209847494B1C68002C39
:1091D0003FF479AF636820461B685146984723687F
:1091E0001C68002CF6D16EE73E4D2B78062B00F064
:1091F0002B82072B02D0052B7FF465AF07F080F997
:1092000002232B705FE7DFF8E890D9F80070002F99
:1092100000F0408197F808A0BAF1000F00F0358106
:109220004FF00008444607F109057B68DB6813B17D
:109230002146384698473B7AA34240F2A3816E7894
:10924000002E00F019810024234632460AE0AB7854
:109250002A190134D05C07F0EFF9E3B29E4240F2E4
:109260000B816A789A42F2D800231B78FFDEDFF880
:109270008090D9F80070002F00F0578197F808B05F
:10928000BBF1000F00F04C814FF00008444607F19D
:1092900009057B68DB6813B12146384698473B7A5D
:1092A000A34240F26F816E78002E00F030810024DE
:1092B000234632460AE0AB782A190134D05C07F025
:1092C000BBF9E3B29E4240F222816A789A42F2D818
:1092D00000231B78FFDE00BF443400201049030048
:1092E000AC350020BC350020EC480300F0330020F2
:1092F000A8350020FC330020A44D2B78032B00F070
:10930000A88107F0B3F800283FF4DDAE2B789A1E51
:10931000D2B2062A40F2DD819D4803F07FFD2B7812
:10932000022B00F0CD81082B00F0CA8106232B70A0
:10933000C9E6964D2B78082B00F07E819A1ED2B29A
:10934000062A40F2B781924803F068FD2B78022B81
:1093500000F0AA81082B00F0A78105232B708D4B0C
:109360005B680BB1032098478B4B5146D3E9000251
:1093700090478A4B1C68002C3FF4A5AE63682046DA
:109380001B685146984723681C68002CF6D19AE662
:109390007E4D2B78032B7FF496AE06F06BFF0028F2
:1093A0003FF491AE2B789A1ED2B2062A0BD87C4994
:1093B0008A5C12B103F06EFD2B78022B00F09281D3
:1093C000082B00F08F8104232B707CE66F4B1B78F9
:1093D000032B00F05581082B00F052816D4B5B6828
:1093E0000BB1002098476F4B1C68002C3FF46BAE0C
:1093F000636820461B685146984723685C68002CC8
:10940000F6D160E6634B5B680BB103209847624B73
:109410006549D3E900029047604B1C684CB1624D2E
:10942000636820461B682946984723681C68002CFF
:10943000F6D1564D2B78062B00F00381082B0ED069
:109440009A1ED2B2062A40F23E81514803F0E6FC51
:109450002B78022B03D0082B01D007F051F8022300
:109460002B7030E6636820461B6851469847236896
:109470001C68002CF6D147E608F101085FFA88F471
:10948000A24505F103053FF6D0AE3B681F68002FEB
:109490007FF4C0AE3D4D06F0E3FD2A78931EDBB2AB
:1094A000062B0BD83E49CB5C13B103F0F3FC2A78B2
:1094B000022A01D0082A01D107F018F8D9F8004093
:1094C00000232B704CB1394E636820461B6831462F
:1094D000984723681C68002CF6D12F4B3349D3E9F9
:1094E000000290472B4B5B680BB10E2098472B78FE
:1094F000023BDBB2062B3FF6E6AD294AD35C002BDC
:109500003FF4E1AD01B0BDE8F04F03F0C3BC08F19A
:1095100001085FFA88F45C4505F10305FFF4B9AE74
:109520003B681F68002F7FF4A9AE184D01F0F4FCD2
:109530002A78931EDBB2062B79D81949CB5C002B15
:1095400075D0022A03D0082A01D006F0D9FF114BAA
:109550005B6802222A700BB1012098470E4B5146DE
:10956000D3E900029047D9F80040002C3FF4ABAD9E
:10957000636820461B685146984723681C68002C86
:10958000F6D1A0E500235B78FFDE00BFBC350020EC
:109590000C2B0020F033002044340020A83500209C
:1095A000EC480300AC3500201C49030014490300BB
:1095B0004E4D636820461B682946984723681C68FF
:1095C000002CF6D1DFF834A1DAF804300BB10D200D
:1095D0009847D9F80070002F3FF457AD97F80890DE
:1095E000B9F1000F58D04FF00008444607F10905C3
:1095F0007B68DB6813B12146384698473B7AA34223
:10960000C0D96E78002E3FD000242346324609E0B0
:10961000AB782A190134D05C07F00EF8E3B29E4211
:1096200032D96A789A42F3D800231B78FFDE30489B
:1096300003F0F4FB2A7884E702232B7006F06AFF1C
:109640008DE607232B703EE506F05AFF08232B70AA
:1096500039E506F00FFE00283FF453AE2B789A1E32
:10966000D2B2062A09D823498A5C12B103F012FC4F
:109670002B78022B33D0082B31D004232B7040E6FB
:109680001D48FFF75FFCA9E608F101085FFA88F4BE
:10969000A14505F10305ABD83B681F68002F9DD19C
:1096A000F3E406F023FF0CE506F020FF55E69AF8F8
:1096B0000800F2E40F498A5C002A7FF448AE42E6D3
:1096C00006F014FF32E60B498A5C002A7FF4C1AE33
:1096D000BBE608498A5C002A7FF422AE1CE606F04D
:1096E00005FFCAE706F002FF6DE600BF1049030060
:1096F0000C2B0020EC48030018490300F033002035
:1097000070B5294E82B03468002301930CB3A5884C
:10971000A5B1E388B3F5006F3ABF5A1C92B201229B
:1097200005F1FF3528BF002301A8A580E280ADF830
:109730000630FFF707FC012002B070BD2046FFF79E
:1097400001FC1A491A4802F055FA0120356002B0AE
:1097500070BD1649164802F01FFA04463060002812
:10976000D5D1144B18680028E6D002A8124D00F895
:10977000054D01F075FF2B880E48B3F5006F39BF1A
:109780005A1C92B22346012201212A80ADF80630EC
:1097900002F098FA9DF8030001F088FF01A8FFF796
:1097A000D1FB012002B070BDC0350020EC33002099
:1097B00098350020B83500208C3400202DE9F04188
:1097C000067A374FDFF8E0C000F109044FF0030ECE
:1097D0001EFB064E21468E4582B01AD0D1B14D787F
:1097E000002211E08B781344D9420FD011F8038086
:1097F00008F00F03DB0018F0800F14BF6344DB197F
:1098000001321B68002B46D19542EBD103318E45C6
:10981000E4D10021CDB2B542214FDFF88CC028D26F
:1098200005EB4505651924D06B78F3B1AB78EB18DF
:1098300018BF4FF0010E05D117E0AB787344EB1859
:1098400012D096461B7803F00F02D2001B064CBFC5
:109850006244D219106043681E6856606E780EF13B
:1098600001037645DAB2E8D8067A0131CDB2B542C5
:10987000D6D30C4A13681BB11A681368002BFBD1AE
:1098800002A910600B2201F8042D43681B68984759
:1098900002B0BDE8F081112002B0BDE8F08100BF48
:1098A00044340020A8350020FC330020024B1878F7
:1098B000003018BF01207047B435002000F00F03BE
:1098C000072B10B5044604D807F0D4F8204607F05B
:1098D00073F82046BDE8104006F042BE06F0ACBE6C
:1098E000014B1868704700BFA835002070B4114BB9
:1098F0001E68A6B1357A75B1737A834206F1090202
:1099000010D0002303E012F8034F84420BD0013340
:10991000DBB29D42F7D133681E68002EEAD1304693
:1099200070BC704700230029F9D030460B7070BC22
:10993000704700BFA8350020436811461B681847D0
:1099400000F00F03082B0AD802064CBF054A064A4E
:10995000DB001344186810B143681B6818471020D7
:10996000704700BFFC3300204434002038B5094B59
:109970001C6864B1054602E023681C683CB163685A
:1099800029461B68204698470628F5D038BD062092
:1099900038BD00BFA835002038B50D46044606F096
:1099A000CFFD18B1054B1B78022B01D0082038BD24
:1099B00029462046BDE8384006F014BFBC350020DB
:1099C00038B50D46044606F0BBFD18B1054B1B78B3
:1099D000022B01D0082038BD29462046BDE838407A
:1099E00006F08ABFBC350020F8B543689B68054681
:1099F0000C4616461BB19847062800D0F8BD86BB1A
:109A00002B7AA3421DD9093504EB44042C44677812
:109A10002FB3354633463A460EE0A3786219D65C3A
:109A200006F00F03072B30460DD9013506F098FDDF
:109A3000EBB29F4213D962789342EED300231B7896
:109A4000FFDE7378FFDE07F015F8304606F0B4FF4E
:109A50000135304606F084FDEBB2BB42EBD300206B
:109A6000F8BD0720F8BD00BF43681B6903B1184764
:109A7000184670472DE9F047304BD3F80090B9F104
:109A8000000F59D099F808A0BAF1000F4DD04FF04F
:109A90000008444609F1090507E008F101085FFAEA
:109AA00088F4A24505F103053FD9D9F804309B6835
:109AB0002BB100222146484698470628EDD199F857
:109AC0000830A34202D800235B78FFDE6F78002FB6
:109AD000E3D0002423463A460EE0AB782A19D65C40
:109AE00006F00F03072B30460BD9013406F038FD82
:109AF000E3B29F42D1D96A789342EED300231B7818
:109B0000FFDE06F0B7FF304606F056FF0134304660
:109B100006F026FDE3B29F42EDD808F101085FFA96
:109B200088F4A24505F10305BFD8D9F80030D3F871
:109B30000090B9F1000FA5D1BDE8F087A83500204D
:109B40002DE9F8431E4B1F68002F33D097F808907B
:109B5000B9F1000F2AD04FF00008444607F109057B
:109B60007B68DB6813B12146384698473B7AA342AD
:109B700022D96E7896B100242346324609E0AB78AC
:109B80002A190134D05C06F057FDE3B29E4205D994
:109B90006A789342F3D300231B78FFDE08F10108B3
:109BA0005FFA88F4A14505F10305D9D83B681F6821
:109BB000002FCBD1BDE8F88300235B78FFDE00BF28
:109BC000A83500202DE9F0410468D54E0D7A357096
:109BD00040F24537BC4200F0938331D940F257350B
:109BE000AC4200F08F84B4F5567F80F0CE8040F216
:109BF0004D35AC4200F06F8440F24A8140F252355C
:109C0000AC4200F02B8400F27282B4F5547F00F075
:109C10005E8340F25135AC4240F0EE8201240025D3
:109C2000002A00F0388507795755A3424FF0020506
:109C3000057100F2918540F2523303600120CAE1C0
:109C400040F22737BC4200F02884B4F54A7F4AD25C
:109C500040F21737BC4200F04A83B4F5467FC0F0AB
:109C6000698140F21A37BC4200F01A8400F2FD818B
:109C7000B4F5467F00F0D88340F21937BC4240F07B
:109C8000BB82002A00F0228690F804E001244FF005
:109C9000000C0027A34202F80CE0077140F2428456
:109CA00002EB040C01348CF80070DFF880C200274E
:109CB0008CF80070AF4280F0B2830925A342057191
:109CC00040F24285671C002A00F06F850579155522
:109CD000BB424FF00404047100F2C18540F222330C
:109CE0000360012077E1B4F54D7F00F0C68340F2B8
:109CF000848040F23D35AC4200F0D88340F29D8232
:109D000040F24335AC4200F06F82B4F5517F80F0F1
:109D10004D8340F24235AC4240F06E820125002472
:109D2000002A00F07C84077917559D424FF02404E7
:109D3000047180F05984274605F1010E0024734513
:109D40005755047140F2468425460EF1010C10244B
:109D5000634502F80E50047140F2238425460CF14D
:109D600001070124BB4202F80C50047140F20A843E
:109D7000254607EB040C05246345D555047140F2D4
:109D8000FC8325460CF101079AE040F27335AC42A2
:109D900000F0A983B4F55D7FC0F0FE80B4F5617F6B
:109DA00000F0208340F25A8240F28A35AC4200F043
:109DB000138240F28F35AC4200F00E8240F28535BE
:109DC000AC4240F01982002A40F092850124554DA2
:109DD0000F7D2D682D78AF4200F0F3838F7DAF4269
:109DE00000F09F84DFF848C14F4F9CF800503F7847
:109DF0000135EDB28CF800503DE040F22D35AC421B
:109E000000F08C8200F29781B4F54A7F00F0558211
:109E100040F22935AC4240F0EF81424C2768002ADD
:109E200000F072850479964601258EF800403C7852
:109E30000F7DA74200F0E5838F7DA74200F0BD842F
:109E40000024AB42047140F2F3816C1C0AB1077923
:109E50005755344D91F814C02D682F78BC4500F04B
:109E60001B82DFF8C4E0DFF8C8C06F788EF800709E
:109E700000258CF80050BD42C0F0C281DFF8ACC0B4
:109E800035789CF800700137FFB28CF8007011E74C
:109E900040F24A35AC4200F04F8300F25D8140F25F
:109EA0004635AC4200F0058340F24935AC4240F003
:109EB000A381002A00F00285057901274FF0000CEC
:109EC0002424BB4202F80C50047140F24C8307F189
:109ED000010E01257345D455057140F235830EEB13
:109EE000050C0324634502F80E50047140F23183DF
:109EF0000CF1010702F80C40BB4291F816C080F843
:109F000004C040F2DE827D1C0424AB4202F807C08C
:109F1000047100F226844FF45473036001205AE068
:109F2000C6350020C8350020C4350020C5350020C6
:109F3000C7350020B4F5457F00F0098200F21C818E
:109F4000002C00F07A8240F21337BC4240F054817A
:109F5000002A00F0398404791470012B4FF00B04AF
:109F6000047140F20D844FF0030C02274FF0010EF4
:109F700002F80E40BB4291F814E080F804E040F291
:109F80000B830224634502F807E0047140F2FF826C
:109F900027460CF1010800E140F25A35AC4200F0CE
:109FA0000E821AD8B4F5567F00F0DE8140F25935A2
:109FB000AC4240F0218101240025002A00F08F836B
:109FC00007795755A3428D7D057100F2C28340F297
:109FD0005A3303600120BDE8F08140F26E35AC4297
:109FE00000F01A8240F26F35AC4240F00581002A41
:109FF00000F091840579944601248CF80050C44FF8
:10A00000C44D3F682D7897F801C0AC4540F20D81F2
:10A0100097F802C03D44A34215F80C50057140F278
:10A020004781651C1AB190F804C002F804C03C785E
:10A030000F7DA74200F0DD828F7DA74200F0AB8349
:10A040004024AB42047140F21D816C1C002A00F0D8
:10A05000B28207795755A3424FF00005057140F2CF
:10A060001681171901343D70B1E640F22137BC4228
:10A0700000F0778140F22237BC4240F0BD80002AD8
:10A0800000F03F840479154601272C700D7AA24C0C
:10A090002478AC4280F0F18004EB440501F109041E
:10A0A000DFF86CC214F805E080F804E02C44BB42F1
:10A0B000CCF8004040F293827C1C002A00F01D8303
:10A0C0000579D555A3424FF00005057140F26E8227
:10A0D0008F4F3F6804F1010C155563457C7804717E
:10A0E00000F2538340F229330360012073E740F20A
:10A0F0005335AC4200F07E8140F25635AC427BD104
:10A10000002A00F006840779944601252424AB42F6
:10A110008CF80070047140F2688127466C1C57551A
:10A12000A3424FF00605057100F225834FF45673E4
:10A13000036001204FE740F22E35AC4200F08781EA
:10A1400040F22F35AC4257D1002A00F0D783174692
:10A1500004793C70012573E640F24B35AC4200F0C7
:10A16000D881B4F5537F47D1002A00F09C8304794D
:10A1700001274FF0000CBDE640F21537BC4200F05D
:10A18000288140F21637BC4236D1002A00F0A08365
:10A1900007794FF001084FF0000C0224434502F804
:10A1A0000C70047140F2E481274608F1010E02248C
:10A1B000734502F80870047140F2D0810EF1010C71
:10A1C00002F80E40634591F819E080F804E040F28F
:10A1D000AE810CF101045CE501240025002A3FF466
:10A1E00001AE07795755FDE5002A00F05A8307793B
:10A1F0004FF0010E0025A1E5002303601846EAE6B2
:10A200000725A34205714ED9671C002A00F0008281
:10A2100005791555BB424FF00505057100F2908296
:10A2200040F26F3303600120D5E600231B78FFDE88
:10A2300040F23D3303600120CDE640F23535AC42BB
:10A2400000F0A18040F23635AC42D5D1002A00F0B2
:10A2500055831446077927700125F1E5B4F55E7F33
:10A2600003D040F27D35AC42C6D101250024002A3E
:10A270003FF4E6AE07791755E2E6254A002313605E
:10A280001B78FFDE4FF4617303600120A3E640F208
:10A290008533036001209EE605259C42057180F010
:10A2A0004A82651C3CE540F26E330360012092E671
:10A2B00040F27333036001208DE6154C2768002AB5
:10A2C00000F0ED8205794FF0010C002404E7002A2C
:10A2D00000F026830779944601252424AB428CF8AC
:10A2E0000070047140F2048127466C1C9CE4002A33
:10A2F00000F0D38207794FF0010E4FF0000856E7C7
:10A30000002A00F0E782057901274FF0000C28E5CC
:10A31000C8350020C7350020C535002001240025A0
:10A32000002A00F0838207795755A3424FF00207B5
:10A33000077140F2DD81651C1755AB424C7E0471FC
:10A3400000F26F8240F22F330360012043E6002ABF
:10A3500000F0B18204794FF0020C01274FF0000E9B
:10A3600006E601270024AEE4002A00F0D782077930
:10A37000944601258CF800700F7D0771AB4240F2C6
:10A38000A5806C1C1DE6002A00F0938290F804C0A2
:10A39000012500240027AB4202F804C0077100F237
:10A3A000538240F236330360012014E6002A00F0A5
:10A3B0008B8205794FF0010C4FF0000EC7E4002AA4
:10A3C00000F0A5820579174601243D70C74D2D6820
:10A3D00047E5002A00F0698290F804E04FF0010C94
:10A3E0000027CEE50124002530E640F25733036014
:10A3F0000120F0E501240025002A00F058810779AA
:10A400005755A3424FF00505057100F2AF8140F2A8
:10A41000563303600120DEE501270024F5E640F213
:10A420009A3303600120D6E5002A00F055820479B2
:10A430004FF0010C4FF0000EC2E608240471002B0F
:10A440007FF486AD40F2133303600120C3E5002A98
:10A4500000F038820779012500246DE7002A00F01A
:10A4600061820779944601250224AB428CF8007082
:10A47000047142D927466C1CC2E701240025002A3A
:10A4800000F0F081077957554FF0000C9C4280F89E
:10A4900004C080F04181651C7CE7012400270CE6A4
:10A4A000002A40F0E9810124FFF7FFBB01240025C9
:10A4B000CCE4002A00F0048205794FF0010C00275B
:10A4C00059E440F24D330360012084E540F25933F2
:10A4D000036001207FE5002A00F0008290F804C0AC
:10A4E0000125002710E5814C01252768002499E506
:10A4F00040F25133036001206DE540F253330360B5
:10A50000012068E501240025002A00F0DC8007799D
:10A5100005E6002A00F0CB8105794FF0010C4FF0E1
:10A52000000EDEE440F21A330360012053E540F2EE
:10A530001933036001204EE5002A00F0D18104792F
:10A540004FF0010E0027C4E440F24B3303600120BA
:10A5500041E54FF45373036001203CE54FF446732B
:10A560000360012037E540F24A330360012032E501
:10A5700040F21733036001202DE540F249330360B8
:10A58000012028E540F246330360012023E540F234
:10A590001633036001201EE540F2153303600120ED
:10A5A00019E540F245330360012014E54FF44A7386
:10A5B000036001200FE5A34202717FF668AE01340B
:10A5C00005E40D6AA3422D78057140F242812546CB
:10A5D000013403E64FF4517303600120FBE440F2C1
:10A5E000273303600120F6E440F243330360012087
:10A5F000F1E40324AB42047140F243812C4601355F
:10A6000035E60224AB42047140F241816C1C87E6BE
:10A610000524BB4204717FF603AE7C1CEFE42424C6
:10A620009D420471E0D26C1C0025A3420571D1D972
:10A6300001341025A3420571B3D901340125A34289
:10A6400005719FD92C440525A342057195D9013484
:10A650002425A342057186D901340125A342057141
:10A660007FF672AF2C440325A34205717FF671AFCC
:10A6700001348D7D0571A3427FF623AF013404259B
:10A68000A34205717FF647AC651C24279D420771E4
:10A69000BFF42EAF023402259C420571BFF4CBAA51
:10A6A000651C02279D420771BFF427AF3C44052576
:10A6B000A34205717FF6ABAE651C24279D4207714E
:10A6C000BFF493AE02340625A34205717FF62EAD8A
:10A6D0000D7D0571651C9D42BFF4F8AE02348D7D81
:10A6E0000571A3427FF673AC01346FE6C8350020D4
:10A6F00040F22E33036001206DE4A34202717FF625
:10A7000055AF894D2F6801347D780571A3427FF6DE
:10A71000E9AC651CFFF78BBB40F2353303600120C9
:10A7200059E40025A34205713FF651AF40F28F3343
:10A73000036001204FE440F24233036001204AE409
:10A7400002EB070C7C1C58E440F22133036001202B
:10A7500041E41719013438E62F4602EB040C651C5E
:10A7600082E602EB050C27460135B6E52F4602EBE3
:10A77000040C651CCAE42F4602EB040C651CF9E5C9
:10A780004FF445730360012025E402EB0C0E0CF13D
:10A790000105FFF74ABB0224AB4204713FF62EAF1E
:10A7A00040F27D330360012015E40424BB420471B0
:10A7B0007FF694AA01370D7A69E40A24AB4204714A
:10A7C00040F290806C1C5AE60B24012B0471D7D9FF
:10A7D0000324022791F814C080F804C0BB427FF61E
:10A7E000DBAE0227A34207717FF6D1AE0134022708
:10A7F000A34207717FF6BCAE01340227A342077162
:10A800007FF6ACAE01344F7E0771A3427FF68FAE68
:10A8100001340027A34207717FF684AE0134FFF7AD
:10A8200044BA571901353C70FFF70ABB0225A34211
:10A8300005717FF65DAF01344D7E0571A3427FF651
:10A8400081AD651CFFF7FCBA541901352770FFF77D
:10A85000F7BA40F28A3303600120FFF7BCBBD51979
:10A86000013712E49C420271BFF456AF0134002557
:10A87000A3420571E5D894E5077994460124FFF7D2
:10A8800012BA4FF45E7303600120FFF7A4BB40F2DD
:10A890002D3303600120FFF79EBB0124ADE70124A7
:10A8A00032E70124C0E60124E3E6012499E701240C
:10A8B000D9E60124DBE7022401278BE70124C7E660
:10A8C0000124C0E60124B7E70124B2E60124A0E791
:10A8D00001248CE70124B1E6012494E70124CEE6AB
:10A8E0000124BAE64FF44D7303600120FFF773BBF8
:10A8F000174605793D700124FFF769BA0125FFF776
:10A900009FBA0127FFF7C3BB0125FFF790BA0124C7
:10A910005CE51446D0E60124FFF771BB0024D7E6BE
:10A920000024B1E61446BBE6C83500204360CA697E
:10A930009A4205D201F12802026000208B6770471D
:10A940008A6910B40260C8698C690A6FC01A1C4415
:10A950001A44C86100308C6118BF01200A675DF895
:10A96000044B704780B90B681A7B202A0AD110B5B6
:10A970000722044603F10E0103F1180009F0CEF896
:10A98000204610BD06207047032070472DE9F04394
:10A990000B7889B00E4605460E2B22D8DFE803F06F
:10A9A0001C0C1C1C21264B212108211C1C1C1C00DA
:10A9B000C3690BB1032198472B680024C3E91E44E7
:10A9C000C3E9204403F134025A671C845C62DC62F0
:10A9D000204609B0BDE8F0830024204609B0BDE858
:10A9E000F0830624204609B0BDE8F0834B78D909EE
:10A9F0004FEA531239D1012AF3D1B3780768202BDB
:10AA000078D0222BEDD1B6F80740002CE9D1B6F86A
:10AA1000033097F820203B8402F0010203F0010389
:10AA20009A42D9D0C269002B00F01381002AD3D0FA
:10AA300002219047CCE7037A897893B1827A093072
:10AA40008AB1EA7A825C8A42C6D00A06F47800F1BA
:10AA50009980012CC0D01BD3032CBDD00324B7E7B1
:10AA600000235B78FFDE1378FFDE12F0030267D06D
:10AA7000012AB6D1B378212BB3D1B6F80720072A23
:10AA8000AFD10168701C183100F05AFA04469FE7F4
:10AA90002E68012B06F10C00E2D96A7B012A05F130
:10AAA0000C0375D98B49AA7BCDE905101344B26A12
:10AAB00093F80190002A76D1F16FF36AB267C6E984
:10AAC0001F21002B00F0C28006F12C0393E8030045
:10AAD00006F1240383E803004846F26205A9FEF765
:10AAE0006FFF0446EB69002B3FF472AF284600214C
:10AAF00098476DE7B6F80720072A7FF472AF3B73DB
:10AB0000B6F8073008A80024DBB27B7300F8154DB7
:10AB10000E37CDE90573079400F0A2FD204605A984
:10AB2000FEF73AFF044630B96B4B049503A9039333
:10AB300000F014FD04469DF80B0000F0B7FD47E758
:10AB400003F01F03012B7FF44CAFB478062C7FF485
:10AB500048AF05A8039200F015FD0DF10C0C074657
:10AB6000F2783179CDF800C028463B46FEF76AF806
:10AB700005283FF42DAF3946701C039A00F0E0F928
:10AB8000044625E73CB1032C0CBF002403241FE737
:10AB900000231B78FFDEEB69002B3FF41DAF284636
:10ABA0000121984714E7D6F88440706A06F1340C06
:10ABB000A24228BF224661469046674608F0AEFF93
:10ABC000F26FF16AA4EB080307EB080C4244002083
:10ABD000C6E91DC3C6E91F02002961D006F12C0792
:10ABE00097E8030006F124044FF0000884E803000E
:10ABF000C6F82C80002B55D0B26A93420ED25AE090
:10AC000097E8030084E80300B36FC6F82C80002B9C
:10AC100048D0B26AD6F874C09A424CD86146706A7D
:10AC200008F07CFFD6E91D32B16AC6F880100B44EB
:10AC3000521AC6E91D32EB6913B100212846984724
:10AC4000F36A002BDCD1736200244BE700247462AA
:10AC500048E70AB1032190472B7A012B7FF600AF1A
:10AC60006B7B05F10C04002B93D0AB7BE05C04F014
:10AC7000DDFC2B7A012B7FF6F3AE6B7B012B87D9A2
:10AC8000AB7B1C44607804F0D1FC002407F1340352
:10AC90007C62FC62C7E91E44C7E920447B6797E6F3
:10ACA0000023D0E7736A002BCED0484605A9FEF7F3
:10ACB00087FE044616E71A466146706A08F02EFFC2
:10ACC000D6E90932B16FF167521A0B44C6E909326D
:10ACD000E9E700BF2DA9020065A9020003681B8CEB
:10ACE000DB071CD5037A012B16D910B5437B84B042
:10ACF00000F10C040BB91B78FFDE0B46817B605C16
:10AD000091060CBF0124002401A9CDE9013203946E
:10AD1000FEF742FE04B010BD00235B78FFDE082082
:10AD2000704700BF0368D3F88000704770B50468AF
:10AD3000258CEB0782B027D5656A16462DB1E26AED
:10AD4000002A36D0112002B070BDA36F93421ED2EC
:10AD5000C4E90912027A012A29D9467B012E00F1A1
:10AD60000C0222D9807B1D4E0096024404F10C0097
:10AD70005678019013BB30466946FEF721FE002845
:10AD800008BF922002B070BD082002B070BD084616
:10AD9000616F08F0C3FED4E91D32921B3344C4F83E
:10ADA00080602846C4E91D32CDE72B78FFDE6B7842
:10ADB000FFDE9220C4E90B1602B070BD1A460846A9
:10ADC000616F08F0ABFED4E90932A16FE167521A56
:10ADD0000B44A567C4E90932CDE700BF2DA90200E5
:10ADE000002070472DE9F04F4B6885B0002B75D0DF
:10ADF0000D461446CDE9000205F0CEFDEE68A642F0
:10AE000028BF26468246002E00F081804FF00009C0
:10AE10004A46CB464FF0010814E00AEB02002246F6
:10AE200008F07CFED5E902321B1B141BC5F804B0E8
:10AE3000C5E902342BB3002C08BF4FF000083A4696
:10AE4000002E38D0D5E90113B3421C4628BF344642
:10AE5000361BA7180029E0D193B12846524450F878
:10AE6000101B4B68D3F804902346C847D5E902323B
:10AE70001B1B141BC5E902342BB34FF00109DAE7A1
:10AE8000EC68B9F1000F1ED134B32968002935D020
:10AE9000CDF808B003E0AB6829680133AB604B68BC
:10AEA00000225C6802A80123A0470028F3D1286192
:10AEB0003A46002EC6D1009BC3F800A05F60404612
:10AEC00005B0BDE8F08F2B681B68196829608CB944
:10AED000A0464FF00109B2E7C846B0E70B681B680F
:10AEE0001B68002B84D18B68002B81D1C0E9003313
:10AEF0009846E4E74FF001090029C9D16960002FA5
:10AF0000D9D0019BBB4288BF4FF00008D3E737463A
:10AF10004FF00108CFE700BF08B50020FEF7CEFCD8
:10AF20008020BDE80840FEF7C9BC00BF08B500207E
:10AF3000FEF7D4FC8020BDE80840FEF7CFBC00BF80
:10AF400070B5C38893421D4628BF1546934284B00E
:10AF50000E4622D8002204A8002300F80D3D0392DB
:10AF6000CDE9016500F07CFB01A98020FEF714FD0E
:10AF7000044630B19DF8030000F098FB204604B071
:10AF800070BD05F0CBFD802813D09DF8030000F0C4
:10AF90008DFB1024204604B070BD8020144605F0BF
:10AFA000BFFAB4FBF0F303FB1042B2FA82F252098B
:10AFB000D1E7064A064B92E8030083E803009DF8B8
:10AFC000030000F073FB204604B070BD90490300FD
:10AFD000F83500202DE9F04F0B78062B87B07BD099
:10AFE00010D90D2B69D02AD80B2B06D00C2B2FD1C2
:10AFF000B54A1378002B40F0A0800024204607B00B
:10B00000BDE8F08F022BF8D045D9032B25D0052BB6
:10B010001ED10DF10D008DF80C3005F03BFD9DF8B3
:10B020000D20AA4D002102F01F032960032B00F21E
:10B030003C81DFE813F01301E200B600AF000E2BF5
:10B0400019D0852B04D1A04B1A78032A00F02F8148
:10B050000624204607B0BDE8F08F9D4800F04CFE66
:10B060000028CAD09B4B01221A60BFF36F8FBFF339
:10B070004F8F0024C2E7944B1A78012ABDD096491D
:10B0800096480A78012422F002021C700A700024FB
:10B09000FDF758FFB2E7012BDAD18B4B1A78032A60
:10B0A000D6D08D498D480A78032422F002021C7004
:10B0B0000A700624FDF746FFA0E74FF08042824B5E
:10B0C000D2F838141A78C90733D5022A95D08249A4
:10B0D00082480A780224D6E7C87803280D4600F093
:10B0E000EB807A4E3368002B00F0FF800022326044
:10B0F000716898470446C8B93368002B00F0F280A5
:10B10000AB78002B7FF479AF05F0EAFC76E76E4C64
:10B110002378043B012B00F2EA809DF80F30002BCE
:10B1200000F05E81012B00F06C81072405F0ECFC3F
:10B1300064E7012A3FF461AFA1E7674C67482178D3
:10B14000002321F00201217013701C46FDF7FAFE66
:10B1500054E7062900F01281082900F0FE80C9B9E1
:10B160005F4C0222204608F0E4FC5B4A2378127808
:10B17000960743F0010148BF43F0030321700DF12E
:10B180000D0048BF237002225549FFF7D9FE04463F
:10B19000062C03D103A8FEF7E9FB0446002C7BD064
:10B1A000C4E79DF81100040707D003A9FEF7C8FB08
:10B1B00006280446F2D19DF80D2012F0600F74D1DC
:10B1C0009DF80E30404A9DF811401278012B00F096
:10B1D0009080C0F0B080032B67D104F00F03072BE1
:10B1E00063D8BDF80F1000295FD1052A01D0002BCC
:10B1F0007DD1204605F0D4FB4EE001A99DF8110059
:10B20000FEF774FB064600285CD003AA9DF80410E4
:10B21000FEF792FB06280446C0D19DF80D3013F0CE
:10B22000600F83D1284A9DF8041012789DF80EC053
:10B23000DF0940F0B880BCF10B0F7FF477AF052A2F
:10B2400055D1BDF80F30FF2B3FF66FAF30469DF85C
:10B250000F20FEF7C9FB0446F4B167E7C2F34114BF
:10B26000002C97D1D2099DF80E107FF472AF0329FC
:10B2700052D009293FF44BAF01298BD1BDF80F30D3
:10B28000012B87D1FEF712FB002800F0A780124A9D
:10B29000137823F0020313702B687BB105F03EFC9A
:10B2A000044600287FF4A9AE2EE706243EE70A49AB
:10B2B0000A480A780424F8E61C469FE605F01AFCC2
:10B2C00000249BE6102431E7D8350020F835002013
:10B2D000003600205C700240F4350020584903001D
:10B2E0000436002005F006FC88E60E241EE708243C
:10B2F0001CE704F00F03072BD7D8BDF80F10002967
:10B30000D3D1052A01D0002BF1D1204605F0B2FBA4
:10B31000204605F051FBBFE7BDF80F30012B7FF44D
:10B3200039AFFEF7C3FA002858D0834A137843F0A8
:10B3300002031370B0E7052A01D02007D7D12046B9
:10B3400005F076FB7D49022208800DF10D00FFF724
:10B35000F7FD0446002C9FD0E8E6794909780529D5
:10B3600039D004297FF416AF744A14700DF10D0022
:10B3700001227249FFF7E4FD044609E79DF8102019
:10B38000022A60D0032A48D0012A7FF403AFBDF817
:10B390001330002B92D00DF10D0012226949FFF7F6
:10B3A000CFFD0446F4E6BCF1000F72D0BCF10A0FE9
:10B3B0007FF4BCAE052A9AD13046FEF755FB5F49B3
:10B3C0003A4608700DF10D00FFF7BAFD0446002C57
:10B3D0003FF462AFAAE6594B1A70C7E70F24A5E6FF
:10B3E000FEF7AEFB2378042B3FF456AF524A564883
:10B3F0001378042123F0020313702170FDF7A2FDDE
:10B400004AE7FEF737FB2378052B3FF445AF0523CA
:10B410004D482370FDF796FD3EE7BDF81330002B35
:10B420003FF44CAFBDF811109DF80F0000F0DAF8B2
:10B43000014600283FF4AEAE0DF10D000A78FFF78B
:10B440007FFD0446A4E6BDF81320002A3FF436AF82
:10B45000092A28BF09229046FEF742FAA34606466B
:10B460004FF0090A36B3CDF804B0002700E00137E9
:10B4700072680123D2F804903146002201A8C8471F
:10B480000028F4D1337A326823441668BA44DCB217
:10B49000E8E7052A7FF42BAF284B0DF10D00194684
:10B4A0000222A3F800C0FFF74BFD0446002C3FF436
:10B4B000F3AE3BE6214E25493046424608F02EFBCE
:10B4C0003471A6F802A0FEF7F1F918B1F37943F050
:10B4D0002003F371FEF704FA1D4BBDF8131018603A
:10B4E000002201A8D960C3E901688DF8042000F0AA
:10B4F000B7F818498020FEF763FA044638B19DF882
:10B50000040000F0D3F8062C7FF410AE42E605F0FC
:10B5100005FB802805D09DF8040000F0C7F8102432
:10B5200004E60D4B93E8030085E803009DF8040052
:10B5300000F0BCF8B0E600BFF4350020043600206F
:10B54000D83500207C490300584903005C490300BA
:10B55000DC350020A84903009049030038B50546B2
:10B560000C4605F0DBFAA84207D194E80300044A30
:10B5700082E803000023184638BD1023184638BD62
:10B58000F835002008B1402303600148704700BF30
:10B590000436002070B54FF0805286B0D2F8A83043
:10B5A000D2F8A42000926FEA83436FEA93439BB2E0
:10B5B00002A80A4A0A4E0D2108F0C4FA02AD00247E
:10B5C00004E015F8013B06F8013B013402A808F03D
:10B5D000EDFA8442F5D306B070BD00BFB049030058
:10B5E00024410020C8B1012809D0022807D003282F
:10B5F00005D0042803D0052801D000207047154B42
:10B6000003EB4000407820B3134B10B553F82040B3
:10B61000D4B123781BB9A01C10BD1048704700207E
:10B62000FFF7B0FF22788AB100230133DBB220F8A4
:10B63000132014F8012F002AF7D101335B00DBB28D
:10B6400043F44073038010BD204610BD40F2023326
:10B65000F8E770472C4A0300144A0300BE49030070
:10B6600070B4EFF3108472B60D4B9A68AAB90D4905
:10B670000D4E01259D60D1F8805035401D60C1F808
:10B680008060D1F884505D604FF0FF33C1F88430A2
:10B69000027004B962B670BC704701230370F8E70A
:10B6A0003441002000E100E0FC06FFBD094B9A6830
:10B6B0007AB170B910B4EFF3108172B6064A1C6803
:10B6C00014605C685460986001B962B65DF8044B20
:10B6D000704770473441002000E100E0F8B5244E87
:10B6E0004579244C244B254F9B1B04EBC506DB08F6
:10B6F000367947F825201B0496BB02680D88C2F8EE
:10B70000085590F904208978002A21DB02F1604273
:10B7100002F561424901C9B282F8001390F9042090
:10B72000002A07DB164D02F01F0601215209B14025
:10B7300045F822104279134944F8320004EBC20460
:10B7400043F0030001232371FBF798FF0020F8BDAD
:10B750000D4D02F00F0249011544C9B22976DDE70B
:10B7600043F002000949FBF789FF0820F8BD00BF3C
:10B77000085F030044360020485F03004C36002079
:10B7800000E100E06C4A0300FCEC00E0484A0300E2
:10B79000036801221A607047036801225A607047EB
:10B7A000F0B404684FF480358D40C4F8085306683F
:10B7B0008C00C6F8485304F5A0740668A4B20027AC
:10B7C000375182B036590468019601F5A87122F00C
:10B7D0007F42019E44F821200268C2F8445313B10D
:10B7E0000368C3F8045302B0F0BC70472DE9F0477A
:10B7F00088464FF48037016807FA08F7C1F84873A4
:10B800000168C1F80873064600684FEA8804011908
:10B81000D0F80455D1F84005C1F8405504F5A0749E
:10B82000A4B231684FF0000941F8049082B0401B87
:10B830000959009120F07F4001289A4622F07F4567
:10B84000009B0BD1264B4FF4806043F001039847D7
:10B85000336843F804901B590193019B3368D3F874
:10B860000445C3F844732B1B23F07F43012B08F5D9
:10B87000A87817D130681A4B013540F8285043F0AA
:10B8800001034FF4806098473268D2F804359C4237
:10B8900022D1C2F8447333680020C3F8047302B0A5
:10B8A000BDE8F087336843F828503268D2F80415B1
:10B8B0006B1ACAF1FF1A013B0AF57F4A23F07F4356
:10B8C0009A4509D3002BE4D1013542F8285032685B
:10B8D000D2F804359942DCD00D2002B0BDE8F087E3
:10B8E000404A030002680223C2F8443311B10268DF
:10B8F000C2F80433704700BF0368D3F8040150B1A5
:10B90000002282B0C3F80421D3F804310193019BD3
:10B91000012002B0704770474FF48033026803FA89
:10B9200001F1C2F848130368C3F80813704700BF59
:10B93000890001F5A07189B20368585840B100220E
:10B940005A5082B05B580193019B012002B07047AE
:10B95000704700BF0368D3F80405704790F90430BE
:10B96000002B09DB5A09403203F01F030121034871
:10B9700001FA03F340F82230704700BF00E100E015
:10B98000024A034B10681B68184700BF443600206A
:10B990004C3600201EF0040F1CBFEFF309800AE0B4
:10B9A000EFF308800549064A884201D8904202D840
:10B9B0008D464FF00000034B1847000000000420A4
:10B9C00000E00320EDB90200BFF34F8F0549064B9D
:10B9D000CA6802F4E0621343CB60BFF34F8F00BF2D
:10B9E000FDE700BF00ED00E00400FA052DE9F04797
:10B9F00082B08146FCF722FAFCF7E0F90028FBD17F
:10BA00002F4F304A304BBF1AFF083F0447F0010761
:10BA10009D6AB9F1000F4DD0D9F818202B4938464E
:10BA2000FBF7C0FFD9E90210D9E90023CDE90010E6
:10BA300027493846FCF72EF9D9F81C10D9E9042318
:10BA4000384600912349FCF7A1F81F4BDB6A9907A0
:10BA50002BD4DFF894A0DFF894800024012606FAA6
:10BA600004F32B4207D05AF8243041461A46384690
:10BA70000BB1FBF797FF01341A2CF0D12A060DD435
:10BA80002B0405D5104B14499A6B3846FBF78AFFF7
:10BA90004846FFF799FF02B0BDE8F0870A4B0F490F
:10BAA0005A6B3846FBF77EFFEAE70D493846FBF74D
:10BAB000E5FDCEE70B493846FBF7E0FDC5E700BFE3
:10BAC000785F0300085F030000ED00E0804A030098
:10BAD000984A0300D04A03009C4B03007C4B0300B0
:10BAE0002C4B0300F84A0300B84B0300704B0300D3
:10BAF00099B110B4B2FBF3F403FB1424A4B244B91B
:10BB0000C0E9001484608281C38120465DF8044B43
:10BB1000704709205DF8044B70470E20704700BF46
:10BB200030B482B050E8013F9DB2C4892544848975
:10BB3000A54228BF2D1B0489A54202BFBFF32F8F4A
:10BB4000002207E0C5EA030540E80154002CE9D1D2
:10BB50004FF001028DF803200193019B9DF8032013
:10BB60000B602AB10B880068184402B030BC7047E3
:10BB700002F0FF031846F8E70A884B889A4201D082
:10BB80000020704750E8012FC2EA024240E801233A
:10BB9000002BF7D10120704730B482B050E8023F4B
:10BBA0001FFAA3F5C488A54202BFBFF32F8F00225E
:10BBB0000DE0C48925448489A54228BF2D1BC3EA12
:10BBC000054540E80254002CE8D14FF001028DF801
:10BBD00003200193019B9DF803200B602AB14B8841
:10BBE0000068184402B030BC704702F0FF031846EA
:10BBF000F8E700BF0A884B889A4201D000207047BE
:10BC000050E8022FC2EA224240E80223002BF7D17B
:10BC10000120704701F01F024B09012100EB830056
:10BC2000914000F01FB800BF01F01F020123490935
:10BC3000934000EB8100D94300F020B84B0901F09C
:10BC40001F0150F82300C84000F00100704700BFFA
:10BC500050E8002F0B4640E8003C9CF0000FF7D165
:10BC60001046704750E8003F43EA010240E8002CCC
:10BC70009CF0000FF6D11046704700BF50E8003F1F
:10BC800003EA010240E8002C9CF0000FF6D11046B8
:10BC9000704700BF50E8003F03EB010240E8002C72
:10BCA0009CF0000FF6D11046704700BF50E8003FEF
:10BCB000A3EB010240E8002C9CF0000FF6D11046E7
:10BCC000704700BF50E8003F8B422CBF5A1A1A46FB
:10BCD00040E8002C9CF0000FF4D11046704700BFE4
:10BCE000012350E8002F42EA030C40E800C191F024
:10BCF000000FF6D160467047002350E800CF0CEAF1
:10BD0000030240E8002191F0000FF6D16046704731
:10BD1000B8B130B4D0E90112521A0468D2B2531E3D
:10BD20002160DBB242B101680A685C1E551C0D60DF
:10BD30001370E3B2FF2BF6D103680020187130BCFA
:10BD400070470E20704700BFF0B583B002AB0025EE
:10BD500003F8015D04461846FFF782FCD4E9003180
:10BD60001A688A4210D9511E19602168A3680F68A9
:10BD700012F8015C0A79268AE068DB1BDBB29A4282
:10BD800006FB050538BF0B719DF80700FFF78EFC19
:10BD9000284603B0F0BD00BF30B583B002AB00222F
:10BDA00003F8012D054618460C46FFF759FC2A6892
:10BDB0001368591C1160E9682A8A641AB4FBF2F40A
:10BDC0001C709DF80700FFF771FC03B030BD00BF89
:10BDD000826842B110B5044643690168006998471A
:10BDE0000023A36010BD70470EB400B582B0039964
:10BDF00029B102AA04AB42F8043D00F0A9F802B050
:10BE00005DF804EB03B070472DE9F04F924683B024
:10BE100051450F4605461E46DDE90CB2C0F0928042
:10BE20000B464FF00108B3FBFAF39A4508F10108FD
:10BE3000F9D9B04538BFB04612F00109A96802D15E
:10BE4000BBF1000F54D1012402E0013E0AFB04F4CF
:10BE5000012EFAD8B7FBF4F08245F7D93B4E02E049
:10BE6000A968B7FBF4F0335C2A680A2B04FB10774F
:10BE700002EB010E01F1010029D0A8608EF800301C
:10BE8000D5E90131994202D32846FFF7A1FFB4FB5F
:10BE9000FAF4002CE4D1B9F1000F15D0BBF1000F7A
:10BEA00012D0C34510D92024AB682A68591CA96058
:10BEB000D454D5E901329A420BF1FF3B14D2BBF1C5
:10BEC000000F01D0C345EFD103B0BDE8F08FA860EB
:10BED0004FF00D005054D5E9011088421DD2296859
:10BEE00001EB000E0130C8E72846FFF771FFE6E7D7
:10BEF000930722D42024C345A5D92B684A1CAA60E5
:10BF00005C54D5E9013199420BF1FF3B10D2BBF1F2
:10BF1000000F98D0C345F0D195E728460193FFF76D
:10BF200057FFAA682968019B501C01EB020EA4E789
:10BF30002846FFF74DFFA968E9E7002E0CBF302423
:10BF40002024D8E74FF0010873E700BF0051030039
:10BF5000002900F0B9822DE9F04F054687B09146DF
:10BF60000C460E78DFF8C8A64FF00D0B13E0AB6857
:10BF700028680A2E03F1010200EB030100F04B8256
:10BF8000AA600E70D5E901329A4280F01B812678B2
:10BF9000002E00F01E810134002E00F01A81252EA3
:10BFA000E5D12346002713F8012B2D2A00F0E3806A
:10BFB000302A00F0E4802B2A00F0D4802A2A00F0F6
:10BFC0000D81A2F13006F1B2092903D97DE2A1F178
:10BFD00030060346184606EB860110F8012BA2F145
:10BFE0003004092C02EB4101F1D92E2A00F0028124
:10BFF0004FF00008013301E013F8012B02F0FB01C0
:10C0000068291C46F8D0253A532AC0D801A353F812
:10C0100022F000BFFFC302008FBF02008FBF0200EB
:10C020008FBF02008FBF02008FBF02008FBF0200D0
:10C030008FBF02008FBF02008FBF02008FBF0200C0
:10C040008FBF02008FBF02008FBF02008FBF0200B0
:10C050008FBF02008FBF02008FBF02008FBF0200A0
:10C060008FBF02008FBF02008FBF02008FBF020090
:10C070008FBF02008FBF02008FBF02008FBF020080
:10C080008FBF02008FBF02008FBF02008FBF020070
:10C090008FBF02008FBF02008FBF02008FBF020060
:10C0A0008FBF02008FBF02008FBF02008FBF020050
:10C0B0008FBF02008FBF02008FBF02008FBF020040
:10C0C0008FBF02008FBF02008FBF02008FBF020030
:10C0D0008FBF02008FBF02008FBF02008FBF020020
:10C0E000E3C302008FBF02008FBF02008FBF0200B8
:10C0F0008FBF02008FBF02008FBF02008FBF020000
:10C100008FBF02008FBF02008FBF020087C10200F5
:10C1100069C302008FBF02008FBF02008FBF020001
:10C120008FBF020069C302008FBF02008FBF0200F1
:10C130008FBF02008FBF02008FBF02008FBF0200BF
:10C14000D1C202008FBF02008FBF020049C20200AD
:10C150008FBF02002DC202008FBF02008FBF0200FE
:10C16000E3C3020047F004071C46234613F8012BE3
:10C170002D2A7FF41DAF47F001071C46F5E747F075
:10C1800002071C46F1E7D9F800301A1DC9F8002053
:10C190001E78AB680A2E0CD12A68591CA96002F8D7
:10C1A00003B0D5E90123934203D32846FFF710FEDD
:10C1B000AB682A68591CA960D654D5E901329A4265
:10C1C000FFF4E5AE2846FFF703FE2678002E7FF445
:10C1D000E2AE2B7B23BB07B0BDE8F08FD9F800207F
:10C1E000111DC9F80010166862782E2A04F10200A9
:10C1F0007FF4FEAE5A78A2F13003092B00F2BD8124
:10C200004FF0000808EB880802EB480810F8012FEF
:10C21000A2F13003092BA8F13008F3D90346E9E66F
:10C22000284607B0BDE8F04FFFF7D2BDD9F800307F
:10C230001A1DC9F8002019680197434600960A2282
:10C240002846FFF7E1FDA2E6D9F800301A1DC9F82B
:10C250000020D3F80080FB0700F1E880B8F1000F60
:10C2600000F0A181404607F0A1FC0746BE4215D967
:10C27000A6B1202100E08EB1AA682B68501CA860EE
:10C280009954D5E901329A4206F1FF3604D3284683
:10C290000391FFF79DFD0399BE42ECD108F1FF38F1
:10C2A00018F8016F002E3FF472AEAB6828680A2EB2
:10C2B00003F1010200EB030100F09081AA600E700F
:10C2C000D5E901329A42EBD32846FFF781FDE7E733
:10C2D000D9F80020131DC9F80030AB682968176829
:10C2E000581C3022A860CA54D5E90123934280F03B
:10C2F000E6802A68581C7821A860D154D5E901232A
:10C30000934280F0D7800F2F03D93A4612090F2AA3
:10C31000FCD84FF080560DE0AA6081F80080D5E986
:10C3200001329A4202D32846FFF752FD36093FF404
:10C330002EAEAB68B7FBF6F21AF802802868B8F1A7
:10C340000A0F06FB127700EB030103F10102E3D1B0
:10C35000AA6000F803B0D5E901329A4280F0498121
:10C360002B6899180132D7E7D9F800301A1DC9F89F
:10C370000020196881EAE173A3EBE173092B40F314
:10C380000E81AA480122A0FB03C3DB08092B02F19E
:10C390000102F8DC4245134638BF4346039307F0D9
:10C3A0000203002E40F09580002B00F0B780B8F11A
:10C3B000000F00F0F680F80740F1B0800029C0F2CD
:10C3C000FF807A0700F1C88007F00303022B00F01A
:10C3D000A780CDE9006743460A222846FFF714FDEF
:10C3E000D5E5D9F800301A1DC9F800201968019761
:10C3F0004346009610222846FFF706FDC7E5AB68C6
:10C400002A68581C2521A860D154D5E901329A42E6
:10C41000FFF4BDADD6E6AA6000F803B0D5E901325D
:10C420009A423FD2296811440132A9E54146A1EB65
:10C43000080311F8017BD7B1AB68D5F800C00A2F0B
:10C4400003F101020CEB030000F0AF80AA6007705B
:10C45000D5E901329A42EAD328460391FFF7B8FCA6
:10C460000399A1EB080311F8017B002FE4D19E4250
:10C470007FF68DAD202702E0002E3FF488ADA9683D
:10C480002A68481CA8605754D5E90121914206F159
:10C49000FF3604D328460393FFF79AFC039BB3426D
:10C4A000EAD174E52846FFF793FCAB6829685A1C6B
:10C4B000194465E52846FFF78BFCAB6823E728465F
:10C4C000FFF786FCAB6814E7704718460026234642
:10C4D0008BE5002920DB7A071ED41BB1B8F1000FD1
:10C4E0003FF46CAFF8073FF569AFBEB1039BB342B1
:10C4F000BFF464AF2023AA68501CA8602868835446
:10C50000D5E90102824206F1FF3640D236B1039AE4
:10C51000B242F0D1164651E7013EDEE700264DE774
:10C52000B8F1000F7FF455AF002E6AD0039BB342E1
:10C53000BFF44FAF3023AA68501CA860286883540A
:10C54000D5E90102824206F1FF3618D2002E58D0FA
:10C55000039AB242EFD13CE7AA68531CAB602B6848
:10C560002B209854D5E901329A42FFF42DAF28468A
:10C570000491FFF72DFC049926E7034638E5284689
:10C58000CDE90413FFF724FCDDE90413DEE72846B8
:10C59000CDE90413FFF71CFCDDE90413B6E7012223
:10C5A000F8E646460AE7474660E6AA600CF803B09C
:10C5B000D5E901329A4226D22B689818013245E714
:10C5C000AA68531CAB602B682D209854D5E9013222
:10C5D0009A42C1F10001FFF4F7AEC8E7AA6000F883
:10C5E00003B0D5E901329A4217D2296811440132C9
:10C5F00064E62846FFF7ECFBA9682B684A1C19443F
:10C600008AE60026E5E628460391FFF7E1FBA868E5
:10C610002B680399421C184418E72846FFF7D8FBFB
:10C62000AB6829685A1C194448E600BFCDCCCCCC75
:10C6300000510300FFF76CBB2DE9F041058ACE1CC9
:10C64000043D2E440746B6FBF5F6FFF77DFB78B3B5
:10C65000F6B24FF48073013E0446C58007608380C4
:10C6600027D08046002509E06379AE4203F101033B
:10C670006371C8F80000076080461AD03846FFF79B
:10C6800063FB01350028EFD16679721E14D0234672
:10C69000013082421B68FBD11F684EB10025236820
:10C6A0002146013538461C46FFF776FBAE42F6D1EF
:10C6B00000242046BDE8F0812768EFE7043001211F
:10C6C000FFF7E8BAF8B5012104460430FFF7EEFAA7
:10C6D000C0B200B1F8BD6679721E12D02346013097
:10C6E00082421B68FBD11F68002EF3D0002523680F
:10C6F0002146013538461C46FFF74EFBAE42F6D1C7
:10C70000F8BD2768F2E700BF2DE9F843C7884679EE
:10C7100007FB06F6043E02EB030C0446664503F1F4
:10C72000040015468846B0FBF7F238BFF51A07FB40
:10C73000120012B1013A2468FCD13E1AAE4228BF61
:10C740002E469DB14FF000090430AD1B2044324607
:10C7500008EB090107F0E2F9AF42B14424683E4614
:10C760004FF0000028BF2E46002DEDD1BDE8F88324
:10C770002DE9F843C7884679154607FB06F6043EBF
:10C7800005EB030C1A1D664504468846B2FBF7F01C
:10C7900038BFF51A07FB102110B101382468FCD10D
:10C7A0007E1AAE4228BF2E469DB14FF000090431DB
:10C7B0002144AD1B324608EB090007F0AFF9AF4248
:10C7C000B14424683E464FF0000128BF2E46002D9C
:10C7D000EDD1BDE8F88300BF8268002393608268D2
:10C7E0001361826853618268D36082685360826893
:10C7F0001360704701600B6843604A68934204BF4E
:10C8000000234360704700BF436843B102689168EA
:10C810000B4443605268934204BF00234360704757
:10C8200070B54468064620680D4618B908E02468CB
:10C83000206828B1B368294698470028F7D12068B6
:10C840002860256070BD00BF4368186808B10268A1
:10C850001A60704743681868704700BF40680368F3
:10C8600073B18B4203D107E0814204D003461868BC
:10C870000028F9D1704718460B6803600120704703
:10C880001846704730B4184DA5F59472AB1ADB10FA
:10C8900003EBD3735B1002EBC30152F833309842C1
:10C8A00028BF0C4605D311E052F8333098420CD221
:10C8B00021468B1ADB1003EBD3735B108A4202EB29
:10C8C000C304F1D3094830BC70470D46984204D9DF
:10C8D00004F10802AA42D9D3F4E76068034B0028A8
:10C8E00008BF1846EFE700BF645203002851030059
:10C8F00010B4754B1B68082B1CD0744AD2F88830D2
:10C9000043F47003C2F88830BFF34F8FBFF36F8FCB
:10C910004FF01023D3F80022002AC0F2A380D3F8EE
:10C920000432002BC0F29E80694B6A4A1A605DF89F
:10C93000044B70474FF080414FF080520020C1F807
:10C940000C01654BC1F81001C1F83805D2F8041488
:10C95000C3F82015D2F80814C3F82415D2F80C1423
:10C96000C3F82815D2F81014C3F82C15D2F81414F3
:10C97000C3F83015D2F81814C3F83415D2F81C14C3
:10C98000C3F84015D2F82014C3F84415D2F8241483
:10C99000C3F84815D2F82814C3F84C15D2F82C1453
:10C9A000C3F85015D2F83014C3F85415D2F8341423
:10C9B000C3F86015D2F83814C3F86415D2F83C04F3
:10C9C000C3F868054549D2F84004C3F86C05096806
:10C9D000D2F84424C3F87025032937D8404B5B5C58
:10C9E00013B1404B404A1A60404B5B5C63B1364B1D
:10C9F0003F491B68394AFB20C1F81805082B11680C
:10CA00007FF47BAF032921D83A4B5B5C93B13A4862
:10CA10003A4B2D4C02681B682468304922F00F0203
:10CA200003F00F031343082C096803607FF465AF1C
:10CA300003290BD8324B5B5C43B1234B314A1B6853
:10CA40004FF40071082B11607FF457AF4FF0804313
:10CA5000D3F80024D2077FF550AF6FF00102C3F87E
:10CA600000244AE7284B0122C3F80425D3F8002408
:10CA7000002AFBD04FF0102312222349C3F80022D2
:10CA8000D1F80034002BFBD04FF0102212211E4BA6
:10CA9000C2F80412D3F80024002AFBD000221A495D
:10CAA000C3F80425D1F80034002BFBD0BFF34F8F1F
:10CAB0000649164BCA6802F4E0621343CB60BFF329
:10CAC0004F8F00BFFDE700BF3001001000ED00E018
:10CAD000142B00200090D00300C00040340100104F
